:0A0000001AC0FECFFDCFFCCFFBCFEE
:10000A00FACFF9CFF8CFF7CFF6CFF5CFF4CFF3CFBA
:10001A00F2CFF1CFF0CFEFCFEECFEDCFECCFEBCFEA
:10002A00EACFE9CFE8CFE7CFE6CF0000F894EE2792
:10003A00EFBBF1E0F5BFF8E1A895A4B7A77FA4BF8D
:10004A00F0936000E09360008DE0A2E0BB27ED939F
:10005A008A95E9F780E094E0A0E0B1E0ED9301979A
:10006A00E9F7E4E3F0E085919591009761F0A591B5
:10007A00B59105901590BF01F00105900D92019779
:10008A00E1F7FB01F0CFE0E0EEBBE0E0EABDE0E043
:10009A00EBBDEFEFEDBFE4E0EEBFC0E0D2E000C0A1
:1000AA0011E020E0A12FB22F4FD03E2FA6E6B0E0FC
:1000BA00EC91E30FEC93E0E0E8B9EFE3E7B9E8E3AA
:1000CA00E5B9E7ECE4B9E0E0EBB9E2E2EAB900E06D
:1000DA000A93E1E0EA9325D0ECE3EA9305D0E02F16
:1000EA002ED00E2FF5CFFFCFE881EA51FE2FF37005
:1000FA00E695E695E1500000E9F7F03031F0F1308D
:10010A0041F0F23049F0F33049F0000000000000FD
:10011A0006C00000000003C0000001C000C0219614
:10012A000895E881A981EA2321F00000E2E0EBB911
:10013A0004C0E0E0EBB90000000022960895EE2327
:10014A00E1E009F0EE270895F999FECFFF93FFB792
:10015A00F894A1BDB2BDF89AE0B5FFBFFF9108952A
:00000001FF
